:100000000C9463000C948B000C948B000C948B006C
:100010000C948B000C948B000C948B000C948B0034
:100020000C948B000C948B000C948B000C948B0024
:100030000C948B000C948B000C948B000C948B0014
:100040000C94EE030C948B000C94BB050C940906E5
:100050000C948B000C948B000C948B000C948B00F4
:100060000C948B000C948B000000000024002700EF
:100070002A0000000000250028002B0000000000DE
:1000800023002600290004040404040404040202DA
:100090000202020203030303030301020408102007
:1000A0004080010204081020010204081020000012
:1000B0000007000201000003040600000000000029
:1000C00000008D00750711241FBECFEFD8E0DEBF02
:1000D000CDBF11E0A0E0B1E0EAE9F0E102C0059097
:1000E0000D92AC38B107D9F712E0ACE8B1E001C02D
:1000F0001D92AA35B107E1F710E0C6ECD0E004C0CC
:100100002297FE010E944708C23CD107C9F70E940E
:10011000CB070C944B080C940000CF92EF920F93F6
:1001200082E991E06CE04BE025E004E053E0E52E4D
:1001300032E0C32E0E94B5030F91EF90CF90089547
:1001400082E991E060E142E020E00E94FF0288E362
:1001500092E040E855E260E070E00E9444068AE0E8
:1001600060E00E94D40489E060E00E94D40488E04A
:1001700060E00E94D40408958AE00E94670590938D
:100180008D0180938C0189E00E94670590938F0117
:1001900080938E0188E00E9467059093910180937F
:1001A000900140918C0150918D014115510509F04C
:1001B0008AC020918E0130918F0121153105D1F532
:1001C0000097A1F482E991E00E94F70288E392E0AF
:1001D0006AE00E94350782E991E060E040E00E9419
:1001E000C80282E991E060E071E0F9C081309105D8
:1001F00009F069C082E991E00E94F70288E392E089
:1002000064E10E94350782E991E060E040E00E94ED
:10021000C80282E991E06BE071E00E94200882E967
:1002200091E060E041E00E94C80282E991E065E16E
:1002300071E0D5C02130310509F045C0009701F5C6
:1002400082E991E00E94F70288E392E06EE10E9469
:10025000350782E991E060E040E00E94C80282E94F
:1002600091E06AE171E00E94200882E991E060E09B
:1002700041E00E94C80282E991E064E271E0AFC00F
:10028000019709F0B4C082E991E00E94F70288E387
:1002900092E068E20E94350782E991E060E040E088
:1002A0000E94C80282E991E069E271E00E942008A0
:1002B00082E991E060E041E00E94C80282E991E0B9
:1002C00062E371E08CC04130510509F090C020918B
:1002D0008E0130918F012115310509F045C000973D
:1002E00001F582E991E00E94F70288E392E062E37F
:1002F0000E94350782E991E060E040E00E94C80278
:1003000082E991E068E371E00E94200882E991E0CF
:1003100060E041E00E94C80282E991E06DE371E093
:100320005EC0019709F063C082E991E00E94F70284
:1003300088E392E06CE30E94350782E991E060E097
:1003400040E00E94C80282E991E067E471E00E9407
:10035000200882E991E060E041E00E94C80282E961
:1003600091E06DE471E03BC02130310509F03FC000
:10037000009701F582E991E00E94F70288E392E09C
:1003800066E40E94350782E991E060E040E00E9467
:10039000C80282E991E066E571E00E94200882E9E6
:1003A00091E060E041E00E94C80282E991E06CE5E2
:1003B00071E015C00197D9F482E991E00E94F7023B
:1003C00088E392E060E50E94350782E991E060E011
:1003D00040E00E94C80282E991E065E671E00E9477
:1003E000200862E370E080E090E00E9436046AE05A
:1003F00070E080E090E00E94360408950F931F9310
:100400008C01FC01868160E00E94130581E090E090
:100410000E948F04F801868161E00E94130581E04B
:1004200090E00E948F04F801868160E00E9413052D
:1004300084E690E00E948F041F910F910895CF925F
:10044000DF92EF92FF920F931F93CF93DF93D82EFB
:10045000C92E282F392FC9018C01C0E0D0E0E62E2B
:10046000FF24F801878161E00E94D404B7010C2EBB
:1004700002C0759567950A94E2F76170F80187816B
:100480000E94130521960F5F1F4FC830D10549F711
:100490008D2D9C2D0E94FE01DF91CF911F910F9118
:1004A000FF90EF90DF90CF900895CF92DF92EF9280
:1004B000FF920F931F93CF93DF93D82EC92E282F2F
:1004C000392FC9018C01C0E0D0E0E62EFF24F801ED
:1004D000878161E00E94D404B7010C2E02C075959B
:1004E00067950A94E2F76170F80187810E9413050D
:1004F00021960F5F1F4FC430D10549F78D2D9C2DDC
:100500000E94FE01DF91CF911F910F91FF90EF901C
:10051000DF90CF9008951F93CF93DF93EC01162FB8
:100520008C81642F0E9413058D818F3F19F060E04C
:100530000E9413058F8584FF05C0CE01612F0E94A4
:100540001F020EC0612F70E084E0759567958A9553
:10055000E1F7CE010E945502CE01612F0E945502A3
:10056000DF91CF911F91089541E00E948B0281E0BD
:1005700090E0089540E00E948B020895FC0160899C
:10058000862F8460808B6C60CF010E94BA02089530
:10059000DF93CF93CDB7DEB728970FB6F894DEBFC1
:1005A0000FBECDBF9C01FE013196A4E7B1E088E00B
:1005B0000D9001928150E1F7F9018389481710F0FD
:1005C000482F4150E42FF0E0EE0FFF1FEC0FFD1F0E
:1005D0008181680F6068C9010E94BA0228960FB62F
:1005E000F894DEBF0FBECDBFCF91DF91089561E0DB
:1005F0000E94BA0280ED97E00E948F040895CF9385
:10060000DF93EC01423018F08F8588608F874B8B29
:100610001C8A222329F0413019F48F8584608F874A
:1006200080E593EC0E948F048C8160E00E941305AA
:100630008E8160E00E9413058D818F3F19F060E08C
:100640000E9413056F8564FD1DC0CE0163E00E940A
:10065000550284E991E10E948F04CE0163E00E947B
:10066000550284E991E10E948F04CE0163E00E946B
:10067000550286E990E00E948F04CE0162E00E945C
:10068000550216C06062CE010E94BA0284E991E16F
:100690000E948F046F856062CE010E94BA0286E9D3
:1006A00090E00E948F046F856062CE010E94BA02C2
:1006B0006F856062CE010E94BA0284E0888BCE0111
:1006C0000E94BE02CE010E94F70282E0898BCE0119
:1006D00066E00E94BA02DF91CF9108956F927F92F7
:1006E0008F92AF92CF92EF920F931F93DF93CF939E
:1006F000CDB7DEB73C01162F842FF3014483258349
:100700000683E782C086A18682869D8593879E8523
:1007100094879F8595879889968761E00E94D40485
:10072000F30185818F3F19F061E00E94D404F30149
:10073000868161E00E94D404112319F0F301178629
:1007400003C080E1F3018787C30160E141E020E05D
:100750000E94FF02CF91DF911F910F91EF90CF90F8
:10076000AF908F907F906F9008958F92AF92CF92BD
:10077000EF920F931F93CF93DF93DC01362F542F0B
:10078000722F102FAE2C8C2C13961C921E92129747
:1007900080E791E011969C938E9300D000D0EDB746
:1007A000FEB73196CDB7DEB719821182128213825D
:1007B000CD0161E0432F2FEF052FE72EC12E0E94C0
:1007C0006E030F900F900F900F90DF91CF911F91BC
:1007D0000F91EF90CF90AF908F9008951F920F924E
:1007E0000FB60F9211242F933F938F939F93AF9344
:1007F000BF938091AB019091AC01A091AD01B091FC
:10080000AE013091AF010196A11DB11D232F2D5FC7
:100810002D3720F02D570196A11DB11D2093AF015A
:100820008093AB019093AC01A093AD01B093AE0166
:100830008091A7019091A801A091A901B091AA016E
:100840000196A11DB11D8093A7019093A801A093CB
:10085000A901B093AA01BF91AF919F918F913F9150
:100860002F910F900FBE0F901F9018959B01AC0118
:100870007FB7F8948091A7019091A801A091A90158
:10088000B091AA0166B5A89B05C06F3F19F001960B
:10089000A11DB11D7FBFBA2FA92F982F8827860FC2
:1008A000911DA11DB11D62E0880F991FAA1FBB1FDA
:1008B0006A95D1F7BC012DC0FFB7F8948091A701CC
:1008C0009091A801A091A901B091AA01E6B5A89BB9
:1008D00005C0EF3F19F00196A11DB11DFFBFBA2F52
:1008E000A92F982F88278E0F911DA11DB11DE2E021
:1008F000880F991FAA1FBB1FEA95D1F7861B970B7C
:10090000885E9340C8F221503040404050406851CA
:100910007C4F211531054105510571F60895019768
:1009200039F0880F991F880F991F02970197F1F7E7
:100930000895789484B5826084BD84B5816084BD57
:1009400085B5826085BD85B5816085BDEEE6F0E048
:10095000808181608083E1E8F0E0108280818260A4
:100960008083808181608083E0E8F0E08081816025
:100970008083E1EBF0E0808184608083E0EBF0E055
:10098000808181608083EAE7F0E0808184608083F9
:1009900080818260808380818160808380818068A3
:1009A00080831092C1000895CF93DF93482F50E0C9
:1009B000CA0186569F4FFC0134914A575F4FFA0196
:1009C0008491882369F190E0880F991FFC01E85910
:1009D000FF4FA591B491FC01EE58FF4FC591D49102
:1009E000662351F42FB7F8948C91932F9095892317
:1009F0008C93888189230BC0623061F42FB7F894FF
:100A00008C91932F909589238C938881832B888355
:100A10002FBF06C09FB7F8948C91832B8C939FBFF8
:100A2000DF91CF910895482F50E0CA0182559F4F22
:100A3000FC012491CA0186569F4FFC0194914A57AC
:100A40005F4FFA013491332309F440C0222351F15E
:100A5000233071F0243028F42130A1F0223011F538
:100A600014C02630B1F02730C1F02430D9F404C0CE
:100A7000809180008F7703C0809180008F7D80936C
:100A8000800010C084B58F7702C084B58F7D84BD8F
:100A900009C08091B0008F7703C08091B0008F7D36
:100AA0008093B000E32FF0E0EE0FFF1FEE58FF4FF2
:100AB000A591B4912FB7F894662321F48C91909569
:100AC000892302C08C91892B8C932FBF0895682FA6
:100AD00070E0CB0182559F4FFC012491CB018656DB
:100AE0009F4FFC0144916A577F4FFB0194919923DA
:100AF00019F420E030E03CC0222351F1233071F0A2
:100B0000243028F42130A1F0223011F514C0263011
:100B1000B1F02730C1F02430D9F404C080918000B6
:100B20008F7703C0809180008F7D8093800010C0FC
:100B300084B58F7702C084B58F7D84BD09C0809154
:100B4000B0008F7703C08091B0008F7D8093B0009C
:100B5000892F90E0880F991F84589F4FFC01A59121
:100B6000B4918C9120E030E0842311F021E030E05A
:100B7000C901089508951F920F920FB60F92112484
:100B80002F933F934F938F939F93EF93FF93809176
:100B9000C00082FD1DC04091C6002091F00130913F
:100BA000F1012F5F3F4F2F7330708091F2019091D0
:100BB000F3012817390771F0E091F001F091F1018C
:100BC000E055FE4F40833093F1012093F00102C0C5
:100BD0008091C600FF91EF919F918F914F913F912E
:100BE0002F910F900FBE0F901F901895E091440227
:100BF000F0914502E05CFF4F81919191208131811C
:100C0000821B930B8F739070892B11F00E94BA0591
:100C100008951F920F920FB60F9211242F933F93B6
:100C20008F939F93EF93FF9320913402309135027D
:100C300080913602909137022817390731F480915C
:100C4000C1008F7D8093C10014C0E0913602F09105
:100C50003702EC50FE4F208180913602909137028E
:100C600001968F7390709093370280933602209391
:100C7000C600FF91EF919F918F913F912F910F901F
:100C80000FBE0F901F901895AF92BF92DF92EF9218
:100C9000FF920F931F93CF93DF93EC017A018B01A7
:100CA000DD24403081EE580780E0680780E0780757
:100CB00011F0DD24D39491E0A92EB12CEC89FD89AB
:100CC000DD2069F0C50108A002C0880F991F0A94B1
:100CD000E2F7808360E079E08DE390E005C0108268
:100CE00060E874E88EE190E0A80197010E94230873
:100CF00021503040404050405695479537952795B4
:100D000080E12030380720F0DD2011F0DD24D6CF3F
:100D1000E889F9893083EA89FB89208319A2EE8961
:100D2000FF89408121E030E0C9010C8C02C0880FAE
:100D3000991F0A94E2F7482B4083EE89FF8940818E
:100D4000C9010D8C02C0880F991F0A94E2F7482B45
:100D50004083EE89FF894081C9010E8C02C0880F53
:100D6000991F0A94E2F7482B4083EE89FF8980811E
:100D70000F8C02C0220F331F0A94E2F7209528231C
:100D80002083DF91CF911F910F91FF90EF90DF9023
:100D9000BF90AF900895DC011C96ED91FC911D97DA
:100DA000E05CFF4F2191319180819181281B390BAB
:100DB0002F733070C9010895DC011C96ED91FC91F0
:100DC0001D97E05CFF4F20813181E054F040DF014E
:100DD000AE5BBF4F8D919C9111972817390719F47D
:100DE0002FEF3FEF07C08D919C91E80FF91F808195
:100DF000282F30E0C9010895DC011C96ED91FC918B
:100E00001D97E05CFF4F20813181E054F040DF010D
:100E1000AE5BBF4F8D919C9111972817390719F43C
:100E20002FEF3FEF10C08D919C911197E80FF91FA4
:100E300020818D919C91119701968F7390701196DE
:100E40009C938E9330E0C9010895DC0191968C91BA
:100E50009197882339F05496ED91FC9155978081B4
:100E600086FFF9CF91961C920895CF93DF93EC0102
:100E7000EE85FF85E05CFF4F20813181E054F0403A
:100E80002F5F3F4F2F733070DF01AE5BBF4F8D91EF
:100E90009C91119728173907D1F3E05CFF4F8081AF
:100EA0009181E054F040E80FF91F6083EE85FF85E3
:100EB000E05CFF4F31832083EE89FF89208181E050
:100EC00090E00F8C02C0880F991F0A94E2F7282B3C
:100ED000208381E089A3EC89FD89808180648083FF
:100EE00081E090E0DF91CF91089510923B02109243
:100EF0003A0288EE93E0A0E0B0E080933C02909349
:100F00003D02A0933E02B0933F0280E891E09093AF
:100F100039028093380280EB91E0909345028093F0
:100F2000440284EF91E0909347028093460285EC5F
:100F300090E0909349028093480284EC90E0909373
:100F40004B0280934A0280EC90E090934D02809394
:100F50004C0281EC90E090934F0280934E0282EC21
:100F600090E0909351028093500286EC90E0909331
:100F700053028093520284E08093540283E0809372
:100F8000550287E08093560285E08093570281E006
:100F9000809358020895CF93DF930E9499040E9492
:100FA000A000C6EFD5E00E94BC002097E1F30E94AC
:100FB000F605F9CFCF92DF92EF92FF920F931F9336
:100FC000CF93DF937C016B018A01C0E0D0E00FC0BA
:100FD000D6016D916D01D701ED91FC910190F081E9
:100FE000E02DC7010995C80FD91F01501040011508
:100FF000110571F7CE01DF91CF911F910F91FF90F5
:10100000EF90DF90CF900895CF93DF93EC016115BF
:10101000710519F420E030E00FC0DB010D900020D5
:10102000E9F71197A61BB70BE881F9810280F381DC
:10103000E02DAD0109959C01C901DF91CF91089583
:101040000E9404080895A1E21A2EAA1BBB1BFD01F1
:101050000DC0AA1FBB1FEE1FFF1FA217B307E40797
:10106000F50720F0A21BB30BE40BF50B661F771FEF
:10107000881F991F1A9469F76095709580959095CF
:101080009B01AC01BD01CF010895EE0FFF1F05903C
:0A109000F491E02D0994F894FFCFCD
:10109A00525942204E4F54204F4B005259204E4F26
:1010AA0054204F4B0042204F4B005242204E4F5487
:1010BA00204F4B0059204F4B0052204E4F54204F87
:1010CA004B005942204F4B0052204F4B00594220AF
:1010DA004E4F54204F4B005242204F4B0059204E46
:1010EA004F54204F4B005259204F4B0042204E4F35
:1010FA0054204F4B00525942204F4B000000000031
:10110A00B402DA0700004000140054000000000096
:0C111A003507DA07CB06FC06DC062507CB
:00000001FF
